:100000000C942A000C9447000C9447000C94470071
:100010000C9447000C9447000C9447000C94470044
:100020000C9447000C9447000C94F5120C94AC12FD
:100030000C9481140C9447000C9447000C944700D6
:100040000C9447000C9447000C9447000C94470014
:100050000C94470011241FBECFE5D4E0DEBFCDBF16
:1000600012E0A0E6B0E0E6E1FEE402C005900D92E9
:10007000A83BB107D9F713E0A8EBB2E001C01D928D
:10008000A738B107E1F70E94BB1B0C9409270C9419
:100090000000EF92FF920F931F937B018C0120E0F1
:1000A00030E040E05FE40E94490388238CF0C801FF
:1000B000B70120E030E040E05FE40E94C1010E940F
:1000C000A9039B01AC01205030404040504806C07D
:1000D000C801B7010E94A9039B01AC01B901CA0183
:1000E0001F910F91FF90EF900895A0E0B0E0EBE733
:1000F000F0E00C948D26DC012B01FA019C919230EA
:1001000008F439C1EB018881823008F433C194309E
:1001100069F4843009F02FC111969C91119789815F
:10012000981709F428C1A1E7B1E025C1843009F48A
:1001300021C18230A9F4923009F01DC19A01AD01AC
:1001400088E0EA010990AE01E90109929E0181501F
:10015000C1F7E201898111969C918923818308C1AD
:10016000923009F407C112962D903C901397EB0141
:100170008A819B811496AD90BD90CD90DC901797AD
:10018000EC80FD800E811F819101281B390BB90184
:1001900037FF04C066277727621B730B6032710537
:1001A0000CF061C0121613066CF537014801062EDB
:1001B00004C096948794779467940A94D2F721E0C8
:1001C00030E040E050E004C0220F331F441F551FB1
:1001D0006A95D2F721503040404050402E213F21B7
:1001E00040235123211531054105510521F021E01E
:1001F00030E040E050E079018A01E628F72808293C
:1002000019293CC0232BD1F1260E371E350146019A
:10021000062E04C096948794779467940A94D2F734
:1002200021E030E040E050E004C0220F331F441FC3
:10023000551F6A95D2F721503040404050402A2146
:100240003B214C215D21211531054105510521F04E
:1002500021E030E040E050E059016A01A628B728CB
:10026000C828D9280BC0821593052CF01C01AA249C
:10027000BB24650103C0EE24FF24870111969C91E5
:10028000D20111968C91981709F445C0992339F041
:10029000A80197012A193B094C095D0906C0A6016E
:1002A00095012E193F09400B510B57FD08C01182D3
:1002B0003382228224833583468357831DC081E0A5
:1002C00081833382228288279927DC01821B930B4A
:1002D000A40BB50B84839583A683B7830DC0220F2F
:1002E000331F441F551F24833583468357838281E0
:1002F000938101979383828324813581468157813D
:10030000DA01C9010197A109B1098F5F9F4FAF4F72
:10031000BF4328F30BC0918333822282EA0CFB1C7B
:100320000C1D1D1DE482F5820683178383E0808304
:10033000248135814681578157FF1AC0C901AA27F8
:1003400097FDA095BA2F81709070A070B0705695EF
:10035000479537952795822B932BA42BB52B848318
:100360009583A683B7838281938101969383828349
:10037000DF0101C0D201CD01CDB7DEB7E2E10C94BF
:10038000A926A0E2B0E0E7ECF1E00C94992669839D
:100390007A838B839C832D833E834F835887E9E048
:1003A000EE2EF12CEC0EFD1ECE010196B7010E943F
:1003B0009A058E010F5E1F4FCE010596B8010E946F
:1003C0009A058A8991E089278A8BC701B801AE0115
:1003D000475E5F4F0E9475000E94C504A096E6E04C
:1003E0000C94B526A0E2B0E0E8EFF1E00C94992679
:1003F00069837A838B839C832D833E834F835887C5
:10040000F9E0EF2EF12CEC0EFD1ECE010196B701A6
:100410000E949A058E010F5E1F4FCE010596B8010E
:100420000E949A05C701B801AE01475E5F4F0E9466
:1004300075000E94C504A096E6E00C94B526A0E2E3
:10044000B0E0E5E2F2E00C948D2669837A838B8339
:100450009C832D833E834F835887CE010196BE0136
:10046000675F7F4F0E949A05CE010596BE016F5EC1
:100470007F4F0E949A059985923088F08989823051
:10048000C8F0943019F4823051F404C0843029F457
:10049000923081F481E791E0C6C0923049F420E0C7
:1004A0009A858A89981321E02A87CE010996BBC0D4
:1004B000823049F420E09A858A89981321E02A8BBA
:1004C000CE014196B0C02D843E844F8458886D88FB
:1004D0007E888F88988CEE24FF248701AA24BB2471
:1004E000650140E050E060E070E0E0E0F0E0C10174
:1004F00081709070892BE9F0E60CF71C081D191D1E
:100500009A01AB012A0D3B1D4C1D5D1D80E090E062
:10051000A0E0B0E0E614F7040805190520F481E036
:1005200090E0A0E0B0E0BA01A901480F591F6A1F8E
:100530007B1FAA0CBB1CCC1CDD1C97FE08C081E0F5
:1005400090E0A0E0B0E0A82AB92ACA2ADB2A3196B6
:10055000E032F10549F0660C771C881C991C569412
:10056000479437942794C3CFFA85EA892B893C892D
:100570008B859C85280F391F2E5F3F4F17C0CA01FE
:1005800081709070892B61F016950795F794E79428
:1005900080E090E0A0E0B0E8E82AF92A0A2B1B2BC3
:1005A00076956795579547952F5F3F4F77FDE7CF36
:1005B0000CC0440F551F661F771F17FD4160EE0CDE
:1005C000FF1C001F111F21503040403090E05907A0
:1005D00090E0690790E4790760F32B8F3C8FDB0193
:1005E000CA018F779070A070B07080349105A1051A
:1005F000B10561F447FD0AC0E114F10401051105DC
:1006000029F0405C5F4F6F4F7F4F40781A8EFE1786
:1006100011F081E08A8F4D8F5E8F6F8F78A383E01A
:10062000898FCE0149960E94C504A096E2E10C9400
:10063000A926A8E1B0E0EFE1F3E00C9499266983E4
:100640007A838B839C832D833E834F83588789E0F5
:10065000E82EF12CEC0EFD1ECE010196B7010E9492
:100660009A058E010F5E1F4FCE010596B8010E94BC
:100670009A058985823040F08989823028F0C70147
:10068000B8010E94120601C08FEF6896E6E00C9454
:10069000B526A8E1B0E0EFE4F3E00C949926698375
:1006A0007A838B839C832D833E834F83588789E095
:1006B000E82EF12CEC0EFD1ECE010196B7010E9432
:1006C0009A058E010F5E1F4FCE010596B8010E945C
:1006D0009A058985823040F08989823028F0C701E7
:1006E000B8010E94120601C08FEF6896E6E00C94F4
:1006F000B526A8E1B0E0EFE7F3E00C949926698312
:100700007A838B839C832D833E834F83588789E034
:10071000E82EF12CEC0EFD1ECE010196B7010E94D1
:100720009A058E010F5E1F4FCE010596B8010E94FB
:100730009A058985823040F08989823028F0C70186
:10074000B8010E94120601C081E06896E6E00C94B0
:10075000B526ACE0B0E0EFEAF3E00C949D266983A7
:100760007A838B839C83CE010196BE016B5F7F4FA2
:100770000E949A058D81823061F1823050F184307F
:1007800021F48E81882351F12EC02F81388537FDC9
:1007900020C06E812F3131051CF06623F9F023C093
:1007A0008EE190E0821B930B29853A854B855C8511
:1007B00004C056954795379527958A95D2F76623B5
:1007C000B1F050954095309521953F4F4F4F5F4F79
:1007D0000EC020E030E040E050E009C02FEF3FEFD6
:1007E0004FEF5FE704C020E030E040E050E8B9019F
:1007F000CA012C96E2E00C94B926A8E0B0E0E3E050
:10080000F4E00C9495267B018C016115710581053E
:10081000910519F482E0898360C083E089838EE1C9
:10082000C82ED12CDC82CB82ED82FE820F8318870A
:10083000C801B7010E947604FC013197F7FF3BC065
:10084000222733272E1B3F0B57016801022E04C0BD
:10085000D694C794B794A7940A94D2F740E050E096
:1008600060E070E081E090E0A0E0B0E004C0880FBC
:10087000991FAA1FBB1F2A95D2F70197A109B10999
:100880008E219F21A023B1230097A105B10521F05E
:1008900041E050E060E070E04A295B296C297D2945
:1008A0004D835E836F8378878EE190E08E1B9F0B74
:1008B0009C838B8312C0309781F00E2E04C0EE0C07
:1008C000FF1C001F111F0A94D2F7ED82FE820F83D6
:1008D0001887CE1ADF0ADC82CB821A82CE010196FB
:1008E0000E94C5042896EAE00C94B126EF92FF928C
:1008F0000F931F937B018C0180E0E81680E0F806DF
:1009000081E0080780E0180788F48FEFE816F1040B
:100910000105110531F028F088E090E0A0E0B0E09A
:1009200017C080E090E0A0E0B0E012C080E0E816E0
:1009300080E0F80680E0080781E0180728F088E1E9
:1009400090E0A0E0B0E004C080E190E0A0E0B0E082
:1009500020E230E040E050E0281B390B4A0B5B0BF3
:1009600004C016950795F794E7948A95D2F7F70196
:10097000E758FE4F8081281B310941095109C901FF
:100980001F910F91FF90EF900895DF92EF92FF92E9
:100990000F931F93FC01E480F58006811781D180BD
:1009A0008081823048F480E090E0A0E1B0E0E82A65
:1009B000F92A0A2B1B2BA5C0843009F49FC0823072
:1009C00021F4EE24FF24870105C0E114F1040105A0
:1009D000110519F4E0E0F0E096C0628173819FEFA9
:1009E000623879070CF05BC022E83FEF261B370B1B
:1009F0002A3131052CF020E030E040E050E02AC000
:100A0000B801A701022E04C07695679557954795C2
:100A10000A94D2F781E090E0A0E0B0E004C0880F33
:100A2000991FAA1FBB1F2A95D2F70197A109B109E7
:100A30008E219F21A023B1230097A105B10521F0AC
:100A400081E090E0A0E0B0E09A01AB01282B392BC7
:100A50004A2B5B2BDA01C9018F779070A070B070C0
:100A600080349105A105B10539F427FF09C0205C48
:100A70003F4F4F4F5F4F04C0215C3F4F4F4F5F4F81
:100A8000E0E0F0E02030A0E03A07A0E04A07A0E470
:100A90005A0710F0E1E0F0E079018A0127C06038E0
:100AA000710564F5FB01E158FF4FD801C7018F774D
:100AB0009070A070B07080349105A105B10539F433
:100AC000E7FE0DC080E490E0A0E0B0E004C08FE35A
:100AD00090E0A0E0B0E0E80EF91E0A1F1B1F17FF10
:100AE00005C016950795F794E794319687E016951B
:100AF0000795F794E7948A95D1F705C0EE24FF2473
:100B00008701EFEFF0E06E2F679566276795902FCE
:100B10009F77D794DD24D7948E2F8695492F462B27
:100B2000582F5D29B701CA011F910F91FF90EF90D7
:100B3000DF900895FC01DB01408151812281622F09
:100B40006F7770E0221F2227221F9381892F880F41
:100B5000822B282F30E0991F9927991F11969C937B
:100B6000119721153105A9F541155105610571054B
:100B700011F482E037C082E89FEF13969C938E9326
:100B800012979A01AB0167E0220F331F441F551FD4
:100B90006A95D1F783E08C930DC0220F331F441F59
:100BA000551F12968D919C911397019713969C93C4
:100BB0008E931297203080E0380780E0480780E469
:100BC000580758F314962D933D934D935C931797C4
:100BD00008952F3F310579F44115510561057105DF
:100BE00019F484E08C93089564FF03C081E08C9332
:100BF00012C01C9210C02F57304013963C932E9376
:100C0000129783E08C9387E0440F551F661F771F70
:100C10008A95D1F7706414964D935D936D937C9390
:100C2000179708951F93DC01FB019C91923008F403
:100C300047C08081823008F443C0943051F411964B
:100C40001C91843099F58181682F70E0611B7109D6
:100C50003FC0843021F0923031F48230B9F181818B
:100C6000882389F12DC011961C9111978230F1F0E3
:100C700081811817D9F412962D913C911397828196
:100C800093818217930794F028173907BCF01496C4
:100C90008D919D910D90BC91A02D2481358146812F
:100CA0005781281739074A075B0718F4112341F0C9
:100CB0000AC082179307A407B50740F4112319F05F
:100CC00061E070E005C06FEF7FEF02C060E070E0B0
:100CD000CB011F910895DF93CF93CDB7DEB7A197D6
:100CE0000FB6F894DEBF0FBECDBF1E8E81E08F8F92
:100CF00082E088A383E089A384E08D8F07C180E030
:100D000090E0A8ECB2E4898F9A8FAB8FBC8F698D8D
:100D10007A8D8B8D9C8D20E030E04AE753E40E9471
:100D20001F02DC01CB018D8B9E8BAF8BB88F6D8941
:100D30007E898F89988D20E030E040E85FE30E9453
:100D4000790388232CF481E090E09C8B8B8B3FC04F
:100D50006D897E898F89988D20E03FEF4FE757E4BA
:100D60000E94190318164CF5698D7A8D8B8D9C8D18
:100D700020E030E040E251E40E941F02DC01CB01A0
:100D8000BC01CD010E944900DC01CB019C8B8B8B07
:100D90000FC089E190E09A8B898B89899A890197A4
:100DA000F1F79A8B898B8B899C8901979C8B8B8B14
:100DB0008B899C89009769F714C06D897E898F891A
:100DC000988D0E944900DC01CB019C8B8B8B8B8919
:100DD0009C89988B8F878F8598890197F1F7988BDD
:100DE0008F878D8D282F332727FD3095CE014E9686
:100DF000FC01E20FF31F908180E0692F41E00E9427
:100E00009A1680E090E0A8ECB2E48B879C87AD87CF
:100E1000BE876B857C858D859E8520E030E04AE726
:100E200053E40E941F02DC01CB018F839887A987BE
:100E3000BA876F81788589859A8520E030E040E81F
:100E40005FE30E94790388232CF481E090E09E8385
:100E50008D833FC06F81788589859A8520E03FEF3B
:100E60004FE757E40E94190318164CF56B857C85F3
:100E70008D859E8520E030E040E251E40E941F0213
:100E8000DC01CB01BC01CD010E944900DC01CB019A
:100E90009E838D830FC089E190E09C838B838B813F
:100EA0009C810197F1F79C838B838D819E810197B3
:100EB0009E838D838D819E81009769F714C06F8119
:100EC000788589859A850E944900DC01CB019E8343
:100ED0008D838D819E819A83898389819A810197EF
:100EE000F1F79A8389838D8D282F332727FD30953D
:100EF000CE014E96FC01E20FF31F908180E0692F36
:100F000040E00E949A168D8D81508D8F8D8D8823A3
:100F10000CF0F5CEA1960FB6F894DEBF0FBECDBF94
:100F2000CF91DF910895DF93CF93CDB7DEB7EE97E2
:100F30000FB6F894DEBF0FBECDBF81E08AAF1BAE07
:100F400081E08CAF82E08DAF83E08EAF19AE0EC230
:100F50008AAD882309F4F9C080E090E0A8ECB2E4FF
:100F60008DAB9EABAFABB8AF6DA97EA98FA998AD85
:100F700020E030E04AE753E40E941F02DC01CB018D
:100F800089AB9AABABABBCAB69A97AA98BA99CA97D
:100F900020E030E040E85FE30E94790388232CF4EE
:100FA00081E090E098AB8FA73FC069A97AA98BA98F
:100FB0009CA920E03FEF4FE757E40E941903181661
:100FC0004CF56DA97EA98FA998AD20E030E040E2F4
:100FD00051E40E941F02DC01CB01BC01CD010E9443
:100FE0004900DC01CB0198AB8FA70FC089E190E0ED
:100FF0009EA78DA78DA59EA50197F1F79EA78DA70A
:101000008FA598A9019798AB8FA78FA598A900974E
:1010100069F714C069A97AA98BA99CA90E94490003
:10102000DC01CB0198AB8FA78FA598A99CA78BA7B4
:101030008BA59CA50197F1F79CA78BA789AD282FBD
:10104000332727FD3095CE01CB96FC01E20FF31F2D
:10105000908180E0692F41E00E949A1680E090E044
:10106000A8ECB2E48FA398A7A9A7BAA76FA178A507
:1010700089A59AA520E030E04AE753E40E941F02C8
:10108000DC01CB018BA39CA3ADA3BEA36BA17CA170
:101090008DA19EA120E030E040E85FE30E9479034B
:1010A00088232CF481E090E09AA389A33FC06BA130
:1010B0007CA18DA19EA120E03FEF4FE757E40E9465
:1010C000190318164CF56FA178A589A59AA520E0FB
:1010D00030E040E251E40E941F02DC01CB01BC0180
:1010E000CD010E944900DC01CB019AA389A30FC066
:1010F00089E190E098A38F8F8F8D98A10197F1F7E8
:1011000098A38F8F89A19AA101979AA389A389A1F6
:101110009AA1009769F714C06BA17CA18DA19EA133
:101120000E944900DC01CB019AA389A389A19AA15D
:101130009E8F8D8F8D8D9E8D0197F1F79E8F8D8F58
:101140008AAD91E089278AAF0EC18AAD882309F460
:101150000AC189AD992787FD90959C0121503040A7
:10116000CE01CB96FC01E20FF31F908180E0692F46
:1011700040E00E949A1680E090E0A8ECB2E4898FEB
:101180009A8FAB8FBC8F698D7A8D8B8D9C8D20E073
:1011900030E04AE753E40E941F02DC01CB018D8B53
:1011A0009E8BAF8BB88F6D897E898F89988D20E05B
:1011B00030E040E85FE30E94790388232CF481E06B
:1011C00090E09C8B8B8B3FC06D897E898F89988D39
:1011D00020E03FEF4FE757E40E94190318164CF543
:1011E000698D7A8D8B8D9C8D20E030E040E251E45A
:1011F0000E941F02DC01CB01BC01CD010E9449000D
:10120000DC01CB019C8B8B8B0FC089E190E09A8B2A
:10121000898B89899A890197F1F79A8B898B8B89B8
:101220009C8901979C8B8B8B8B899C89009769F794
:1012300014C06D897E898F89988D0E944900DC01D8
:10124000CB019C8B8B8B8B899C89988B8F878F850F
:1012500098890197F1F7988B8F8789AD282F3327CD
:1012600027FD3095CE01CB96FC01E20FF31F908154
:1012700080E0692F41E00E949A1680E090E0A8EC9F
:10128000B2E48B879C87AD87BE876B857C858D8517
:101290009E8520E030E04AE753E40E941F02DC0113
:1012A000CB018F839887A987BA876F8178858985D5
:1012B0009A8520E030E040E85FE30E9479038823CC
:1012C0002CF481E090E09E838D833FC06F81788510
:1012D00089859A8520E03FEF4FE757E40E94190384
:1012E00018164CF56B857C858D859E8520E030E059
:1012F00040E251E40E941F02DC01CB01BC01CD01A0
:101300000E944900DC01CB019E838D830FC089E1DF
:1013100090E09C838B838B819C810197F1F79C8368
:101320008B838D819E8101979E838D838D819E818C
:10133000009769F714C06F81788589859A850E9426
:101340004900DC01CB019E838D838D819E819A8330
:10135000898389819A810197F1F79A8389838AAD7C
:1013600091E089278AAF89AD8F5F89AF89AD8430DD
:101370000CF4EECDEE960FB6F894DEBF0FBECDBFE7
:10138000CF91DF910895DF93CF93CDB7DEB760970C
:101390000FB6F894DEBF0FBECDBF8B878B858A302A
:1013A00090F5CE0101969D878C87E9E7F2E0FF87F3
:1013B000EE87FAE0F88BEE85FF8500808E859F85AD
:1013C00001969F878E87EC85FD8500828C859D85A3
:1013D00001969D878C8798899150988BE889EE2398
:1013E00051F783E060E041E00E949A168B85282F38
:1013F00030E0CE010196FC01E20FF31F908182E004
:10140000692F0E94B01960960FB6F894DEBF0FBE28
:10141000CDBFCF91DF910895DF93CF93CDB7DEB7E6
:10142000A1970FB6F894DEBF0FBECDBF8A8F7C8F19
:101430006B8F8A8D8A3008F0B6C01F86CE01409629
:101440009E8F8D8FE3E8F2E0F8A3EF8FFAE0F9A327
:10145000EF8DF8A100808F8D98A1019698A38F8FB2
:10146000ED8DFE8D00828D8D9E8D01969E8F8D8FD0
:1014700099A1915099A3E9A1EE2351F783E060E08F
:1014800041E00E949A161F8689C08F85282F30E080
:10149000CE014096FC01E20FF31F908182E0692F9C
:1014A0000E94B0198B8D9C8DCC01A0E0B0E0BC01F6
:1014B000CD010E94FD03DC01CB018B879C87AD87AA
:1014C000BE876B857C858D859E8520E030E04AE770
:1014D00053E40E941F02DC01CB018F839887A98708
:1014E000BA876F81788589859A8520E030E040E869
:1014F0005FE30E94790388232CF481E090E09E83CF
:101500008D833FC06F81788589859A8520E03FEF84
:101510004FE757E40E94190318164CF56B857C853C
:101520008D859E8520E030E040E251E40E941F025C
:10153000DC01CB01BC01CD010E944900DC01CB01E3
:101540009E838D830FC089E190E09C838B838B8188
:101550009C810197F1F79C838B838D819E810197FC
:101560009E838D838D819E81009769F714C06F8162
:10157000788589859A850E944900DC01CB019E838C
:101580008D838D819E819A83898389819A81019738
:10159000F1F79A8389838F858F5F8F879F858A8DE7
:1015A000891708F072CFA1960FB6F894DEBF0FBE70
:1015B000CDBFCF91DF910895DF93CF93CDB7DEB745
:1015C00061970FB6F894DEBF0FBECDBF8B876C87D7
:1015D0008B858A3008F052C08C858A3008F04EC066
:1015E000CE0101969E878D87EDE8F2E0F88BEF87BC
:1015F000FAE0F98BEF85F88900808F85988901964C
:10160000988B8F87ED85FE8500828D859E8501965E
:101610009E878D8799899150998BE989EE2351F79F
:1016200083E060E041E00E949A168B85282F30E02D
:10163000CE010196FC01E20FF31F908182E0692F39
:101640000E94B01983E060E040E00E949A1683E0B7
:1016500061E041E00E949A168C85282F30E0CE018F
:101660000196FC01E20FF31F908182E0692F0E9436
:10167000B01983E061E040E00E949A1661960FB6CF
:10168000F894DEBF0FBECDBFCF91DF910895DF93F9
:10169000CF930F92CDB7DEB7898383E060E041E05E
:1016A0000E949A1682E069810E94B0190F90CF9132
:1016B000DF910895DF93CF93CDB7DEB72F970FB6A5
:1016C000F894DEBF0FBECDBF8F8781E060E040E0C1
:1016D0000E949A1681E061E040E00E949A1680E044
:1016E0006F850E94B01981E062E041E00E949A1685
:1016F00080E090E0A0E4B0E48B879C87AD87BE8754
:101700006B857C858D859E8520E030E04AE753E43B
:101710000E941F02DC01CB018F839887A987BA87BB
:101720006F81788589859A8520E030E040E85FE325
:101730000E94790388232CF481E090E09E838D83BE
:101740003FC06F81788589859A8520E03FEF4FE71C
:1017500057E40E94190318164CF56B857C858D851E
:101760009E8520E030E040E251E40E941F02DC014F
:10177000CB01BC01CD010E944900DC01CB019E835D
:101780008D830FC089E190E09C838B838B819C814A
:101790000197F1F79C838B838D819E8101979E83B6
:1017A0008D838D819E81009769F714C06F81788544
:1017B00089859A850E944900DC01CB019E838D8337
:1017C0008D819E819A83898389819A810197F1F71E
:1017D0009A83898381E062E040E00E949A162F9606
:1017E0000FB6F894DEBF0FBECDBFCF91DF91089545
:1017F000DF93CF93CDB7DEB72F970FB6F894DEBF48
:101800000FBECDBF8F8781E060E041E00E949A1655
:1018100081E061E040E00E949A1680E06F850E94BE
:10182000B01981E062E041E00E949A1680E090E009
:10183000A0E4B0E48B879C87AD87BE876B857C85F1
:101840008D859E8520E030E04AE753E40E941F0228
:10185000DC01CB018F839887A987BA876F81788550
:1018600089859A8520E030E040E85FE30E947903B3
:1018700088232CF481E090E09E838D833FC06F81AC
:10188000788589859A8520E03FEF4FE757E40E94ED
:10189000190318164CF56B857C858D859E8520E097
:1018A00030E040E251E40E941F02DC01CB01BC01A8
:1018B000CD010E944900DC01CB019E838D830FC0C6
:1018C00089E190E09C838B838B819C810197F1F768
:1018D0009C838B838D819E8101979E838D838D81D7
:1018E0009E81009769F714C06F81788589859A85F4
:1018F0000E944900DC01CB019E838D838D819E81F6
:101900009A83898389819A810197F1F79A838983E0
:1019100081E062E040E00E949A162F960FB6F8949C
:10192000DEBF0FBECDBFCF91DF910895DF93CF9380
:1019300000D0CDB7DEB789836A838A81882F90E093
:101940000024969587950794969587950794982FE8
:10195000802D982F8981890F80680E945A0B0F90E3
:101960000F90CF91DF910895DF93CF9300D000D0F7
:1019700000D0CDB7DEB79B838A836C834D832E83E3
:101980008C81882F90E00896880F991F880F991FE7
:10199000880F991F0E945A0B19820EC08981282F27
:1019A00030E08A819B81FC01E20FF31F80810E945D
:1019B000F80B89818F5F89838981883078F38D81E5
:1019C0006E810E94960C8C810E94F80B26960FB6B1
:1019D000F894DEBF0FBECDBFCF91DF910895DF93A6
:1019E000CF9300D00F92CDB7DEB79B838A83198245
:1019F0000EC08981282F30E08A819B81FC01E20F93
:101A0000F31F80810E94F80B89818F5F8983898110
:101A1000282F30E08A819B81FC01E20FF31F808137
:101A2000882319F08981803120F30F900F900F9057
:101A3000CF91DF910895DF93CF93CDB7DEB7659750
:101A40000FB6F894DEBF0FBECDBFCE0101969A8BC4
:101A5000898BE0E6F0E0FC8BEB8BF0E1FD8BEB8912
:101A6000FC8900808B899C8901969C8B8B8BE989F2
:101A7000FA89008289899A8901969A8B898B9D8936
:101A800091509D8BED89EE2351F780E060E00E943C
:101A9000960CCE0101960E94EF0C80E061E00E945E
:101AA000960CCE0101960E94EF0C80E060E00E944F
:101AB000960C65960FB6F894DEBF0FBECDBFCF91E2
:101AC000DF910895DF93CF93CDB7DEB72E970FB692
:101AD000F894DEBF0FBECDBF80E061E00E949B188E
:101AE00081E067E00E94301980E090E0A0E2B2E47B
:101AF0008B879C87AD87BE876B857C858D859E8512
:101B000020E030E04AE753E40E941F02DC01CB01F1
:101B10008F839887A987BA876F81788589859A8509
:101B200020E030E040E85FE30E94790388232CF452
:101B300081E090E09E838D833FC06F8178858985A9
:101B40009A8520E03FEF4FE757E40E9419031816EB
:101B50004CF56B857C858D859E8520E030E040E2EC
:101B600051E40E941F02DC01CB01BC01CD010E94A7
:101B70004900DC01CB019E838D830FC089E190E099
:101B80009C838B838B819C810197F1F79C838B8352
:101B90008D819E8101979E838D838D819E8100978B
:101BA00069F714C06F81788589859A850E944900FC
:101BB000DC01CB019E838D838D819E819A838983F5
:101BC00089819A810197F1F79A8389838CE30E9436
:101BD0005A0B8CE00E945A0B81E00E945A0B2E9601
:101BE0000FB6F894DEBF0FBECDBFCF91DF91089541
:101BF000DF93CF93CDB7DEB7A2970FB6F894DEBFD1
:101C00000FBECDBF8FEF8B83CE0104969F8F8E8F3B
:101C1000E7E9F2E0F9A3E8A3F0E1FAA3E8A1F9A16A
:101C2000008088A199A1019699A388A3EE8DFF8DCC
:101C300000828E8D9F8D01969F8F8E8F9AA19150DD
:101C40009AA3EAA1EE2351F71A82198281E08C8BC4
:101C50001D8A81E08E8B82E08F8B83E0888F84E009
:101C6000898F85E08A8F86E08B8F87E08C8F1A8240
:101C700076C08A81282F30E0CE014596FC01E20F24
:101C8000F31F908182E0692F40E00E949A1619822A
:101C900051C08981282F30E0CE014996FC01E20F26
:101CA000F31F90819E012C5E3F4F82E0692FA901B6
:101CB0000E9417188C898823D1F58981282F30E05C
:101CC0008A81482F50E0220F331F220F331FCE018D
:101CD0000196820F931F840F951FFC01339680811C
:101CE0008B8311C08981282F30E0CE014996FC01F9
:101CF000E20FF31F90819E012C5E3F4F82E0692F1F
:101D0000A9010E9417188C89882361F38A81282FE2
:101D100030E0CE014596FC01E20FF31F908182E096
:101D2000692F41E00E949A16FB81FD8F1EC08981B8
:101D30008F5F89838981843008F4ABCF8A81282F13
:101D400030E0CE014596FC01E20FF31F908182E066
:101D5000692F41E00E949A168A818F5F8A838A8167
:101D6000843008F486CF8B818D8F8D8DA2960FB62F
:101D7000F894DEBF0FBECDBFCF91DF910895DF9302
:101D8000CF93CDB7DEB7A1970FB6F894DEBF0FBEE5
:101D9000CDBF8FEF8B83CE0104969E8F8D8FE7EAA8
:101DA000F2E0F8A3EF8FF0E1F9A3EF8DF8A1008046
:101DB0008F8D98A1019698A38F8FED8DFE8D008257
:101DC0008D8D9E8D01969E8F8D8F99A1915099A397
:101DD000E9A1EE2351F71A82198281E08C8B1D8ACA
:101DE00081E08E8B82E08F8B83E0888F84E0898F07
:101DF00085E08A8F86E08B8F87E08C8F1A827EC089
:101E00008A81282F30E0CE014596FC01E20FF31FB6
:101E1000908182E0692F40E00E949A16198259C091
:101E20008981282F30E0CE014996FC01E20FF31F93
:101E300090819E012C5E3F4F82E0692FA9010E9494
:101E400017188C89882309F041C08981282F30E038
:101E50008A81482F50E0220F331F220F331FCE01FB
:101E60000196820F931F840F951FFC01339680818A
:101E70008B8311C08981282F30E0CE014996FC0167
:101E8000E20FF31F90819E012C5E3F4F82E0692F8D
:101E9000A9010E9417188C89882361F38A81282F51
:101EA00030E0CE014596FC01E20FF31F908182E005
:101EB000692F41E00E949A168B81A1960FB6F89483
:101EC000DEBF0FBECDBFCF91DF91089589818F5FB7
:101ED00089838981843008F4A3CF8A81282F30E058
:101EE000CE014596FC01E20FF31F908182E0692F3D
:101EF00041E00E949A168A818F5F8A838A818430AA
:101F000008F47ECF7BCFDF93CF93CDB7DEB782E0EF
:101F10006FE00E94301982E064E00E941D1682E0AA
:101F200065E00E941D1682E066E00E941D1682E0B8
:101F300067E00E941D16CF91DF910895DF93CF9344
:101F400000D00F92CDB7DEB789838981282F30E08A
:101F50003B832A838A819B818130910531F02A81DC
:101F60003B812230310589F020C080E060E041E013
:101F70000E949A1680E061E040E00E949A1681E09B
:101F800060E041E00E949A162EC080E062E041E0ED
:101F90000E949A1680E063E040E00E949A1681E079
:101FA00061E041E00E949A161EC080E060E041E0DE
:101FB0000E949A1680E061E040E00E949A1681E05B
:101FC00060E041E00E949A1680E062E041E00E94F9
:101FD0009A1680E063E040E00E949A1681E061E09A
:101FE00041E00E949A160F900F900F90CF91DF91D1
:101FF0000895DF93CF9300D00F92CDB7DEB78983DA
:102000008981282F30E03B832A838A819B8181301C
:10201000910531F02A813B812230310589F020C0C1
:1020200080E060E040E00E949A1680E061E041E0DC
:102030000E949A1681E060E041E00E949A162EC04C
:1020400080E062E040E00E949A1680E063E041E0B8
:102050000E949A1681E061E041E00E949A161EC03B
:1020600080E060E040E00E949A1680E061E041E09C
:102070000E949A1681E060E041E00E949A1680E09A
:1020800062E040E00E949A1680E063E041E00E9436
:102090009A1681E061E041E00E949A160F900F903D
:1020A0000F90CF91DF910895DF93CF9300D00F92DF
:1020B000CDB7DEB789838981282F30E03B832A831F
:1020C0008A819B818130910531F02A813B812230C8
:1020D000310589F020C080E060E040E00E949A165F
:1020E00080E061E040E00E949A1681E060E041E01B
:1020F0000E949A162EC080E062E040E00E949A168C
:1021000080E063E040E00E949A1681E061E041E0F7
:102110000E949A161EC080E060E040E00E949A167D
:1021200080E061E040E00E949A1681E060E041E0DA
:102130000E949A1680E062E040E00E949A1680E0D9
:1021400063E040E00E949A1681E061E041E00E9475
:102150009A160F900F900F90CF91DF9108950F93E3
:10216000DF93CF93CDB7DEB72D970FB6F894DEBFD0
:102170000FBECDBF89836A834B832C830D838981F6
:10218000282F30E03D872C878C859D8582309105F6
:10219000E1F12C853D852330310534F48C859D8516
:1021A0008130910561F04FC02C853D85233031058C
:1021B000C9F08C859D8584309105B1F144C0A3E5BB
:1021C000B0E0E3E5F0E080818F7B8C93A3E5B0E0A5
:1021D000E3E5F0E08081877F8C93ECE5F0E08A8195
:1021E00080833FC0A3E5B0E0E3E5F0E080818F7B32
:1021F0008C93A3E5B0E0E3E5F0E0808188608C9308
:10220000ECE5F0E08A8180832CC0A3E5B0E0E3E553
:10221000F0E0808180648C93A3E5B0E0E3E5F0E03A
:102220008081877F8C931DC0A3E5B0E0E3E5F0E0FB
:10223000808180648C93A3E5B0E0E3E5F0E08081E9
:1022400088608C930EC0A3E5B0E0E3E5F0E0808108
:102250008F7B8C93A3E5B0E0E3E5F0E08081877F9E
:102260008C938C81282F30E03B872A878A859B8539
:10227000009731F02A853B852130310549F010C0A7
:10228000A9E5B0E0E9E5F0E0808181608C930FC0C2
:10229000A9E5B0E0E9E5F0E080818E7F8C9307C08E
:1022A000A9E5B0E0E9E5F0E0808181608C938B8165
:1022B000282F30E0398728878885998582309105D5
:1022C00031F0288539852330310549F010C0A9E562
:1022D000B0E0E9E5F0E0808182608C930FC0A9E571
:1022E000B0E0E9E5F0E080818D7F8C9307C0A9E53F
:1022F000B0E0E9E5F0E0808182608C9389818230F2
:1023000019F08981843071F4A3E5B0E0E3E5F0E0F1
:1023100080818F7E8C93A3E5B0E0E3E5F0E08081DF
:1023200080628C938D81282F30E03F832E838E81B5
:102330009F818230910509F448C02E813F8123306E
:10234000310554F48E819F81009799F02E813F8151
:102350002130310521F17BC08E819F818330910531
:1023600009F449C02E813F812430310509F459C058
:102370006EC0A3E5B0E0E3E5F0E0808181608C937E
:10238000A3E5B0E0E3E5F0E080818D7F8C93A3E5E9
:10239000B0E0E3E5F0E080818B7F8C936DC0A3E536
:1023A000B0E0E3E5F0E080818E7F8C93A3E5B0E0C0
:1023B000E3E5F0E0808182608C93A3E5B0E0E3E5A3
:1023C000F0E080818B7F8C9357C0A3E5B0E0E3E51C
:1023D000F0E0808181608C93A3E5B0E0E3E5F0E07C
:1023E000808182608C93A3E5B0E0E3E5F0E080813A
:1023F0008B7F8C9341C0A3E5B0E0E3E5F0E0808102
:102400008E7F8C93A3E5B0E0E3E5F0E080818D7FE3
:102410008C93A3E5B0E0E3E5F0E0808184608C93E9
:102420002BC0A3E5B0E0E3E5F0E0808181608C9310
:10243000A3E5B0E0E3E5F0E080818D7F8C93A3E538
:10244000B0E0E3E5F0E0808184608C9315C0A3E503
:10245000B0E0E3E5F0E080818E7F8C93A3E5B0E00F
:10246000E3E5F0E0808182608C93A3E5B0E0E3E5F2
:10247000F0E080818B7F8C932D960FB6F894DEBFB1
:102480000FBECDBFCF91DF910F910895DF93CF9312
:1024900000D000D00F92CDB7DEB78A836B838B81DB
:1024A000882F90E0A0E0B0E02FEF30E040E050E077
:1024B000BC01CD010E944C26DC01CB0124E630E0BA
:1024C00040E050E0BC01CD010E946B26DA01C90159
:1024D00089838A81282F30E03D832C838C819D81E4
:1024E0008130910571F02C813D812230310591F0D0
:1024F0008C819D81009791F4ECE5F0E089818083E7
:102500000DC0EAE4F0E089818083E8E4F0E08981AD
:10251000808304C0E3E4F0E0898180830F900F9012
:102520000F900F900F90CF91DF910895DF93CF938D
:1025300000D0CDB7DEB79A83898389819A810097CD
:1025400031F089819A819093B9028093B8020F90FB
:102550000F90CF91DF9108951F920F920FB60F92B7
:1025600011242F933F934F935F936F937F938F9398
:102570009F93AF93BF93EF93FF93DF93CF93CDB729
:10258000DEB78091B8029091B902009729F0E091EE
:10259000B802F091B9020995CF91DF91FF91EF91C7
:1025A000BF91AF919F918F917F916F915F914F916B
:1025B0003F912F910F900FBE0F901F901895DF93B2
:1025C000CF9300D0CDB7DEB79A83898389819A8172
:1025D000009731F089819A819093BB028093BA026F
:1025E0000F900F90CF91DF9108951F920F920FB629
:1025F0000F9211242F933F934F935F936F937F9389
:102600008F939F93AF93BF93EF93FF93DF93CF93FA
:10261000CDB7DEB78091BA029091BB02009729F046
:10262000E091BA02F091BB020995CF91DF91FF9141
:10263000EF91BF91AF919F918F917F916F915F913A
:102640004F913F912F910F900FBE0F901F901895B3
:10265000DF93CF9300D0CDB7DEB789836A838981BA
:10266000882391F4E0E2F0E082E08083A1E2B0E030
:10267000E1E2F0E080818D7F8C93A1E2B0E0E1E2C5
:10268000F0E080818E7F8C938A81882329F0E2E2BA
:10269000F0E08A81880F8083A6E5B0E0E6E5F0E00F
:1026A000808184608C930F900F90CF91DF9108957B
:1026B000DF93CF9300D0CDB7DEB789836A83A6E5D9
:1026C000B0E0E6E5F0E0808180628C93A6E5B0E0C2
:1026D000E6E5F0E0808180688C93E6E5F0E08081BB
:1026E0008823DCF7E3E2F0E08981882F90E0880F0F
:1026F000991F982F8A81892B8083A6E5B0E0E6E5B3
:10270000F0E080818F7D8C93A6E5B0E0E6E5F0E017
:10271000808180688C93E6E5F0E080818823DCF797
:102720000F900F90CF91DF910895DF93CF930F9289
:10273000CDB7DEB78983E3E2F0E089818083A6E547
:10274000B0E0E6E5F0E0808180688C93E6E5F0E0BB
:1027500080818823DCF70F90CF91DF910895DF937C
:10276000CF9300D0CDB7DEB79A838983A6E5B0E0DA
:10277000E6E5F0E0808180688C93E6E5F0E080811A
:102780008823DCF7E3E2F0E08081E981FA8180834D
:102790000F900F90CF91DF910895DF93CF93CDB736
:1027A000DEB7A6E5B0E0E6E5F0E0808180618C93DD
:1027B000A6E5B0E0E6E5F0E0808180688C93CF91FB
:1027C000DF910895DF93CF9300D00F92CDB7DEB79E
:1027D00089838981282F30E03B832A838A819B81EA
:1027E000009731F02A813B812130310549F010C03A
:1027F000ADE2B0E0EDE2F0E0808180618C930FC04B
:10280000ADE2B0E0EDE2F0E080818F7E8C9307C016
:10281000ADE2B0E0EDE2F0E080818F7E8C93ADE23E
:10282000B0E0EDE2F0E080818F778C93ADE2B0E034
:10283000EDE2F0E080818F7D8C93ADE2B0E0EDE2DF
:10284000F0E08081877F8C93ADE2B0E0EDE2F0E0D4
:102850008081877F8C93AEE2B0E0EEE2F0E0808191
:1028600081608C93ADE2B0E0EDE2F0E080818E7F9C
:102870008C93ADE2B0E0EDE2F0E080818D7F8C934F
:10288000ADE2B0E0EDE2F0E0808180648C930F90E7
:102890000F900F90CF91DF910895DF93CF9300D0E9
:1028A0000F92CDB7DEB789837B836A83EFE2F0E0D6
:1028B00089818083EEE2F0E080818823DCF7EFE21B
:1028C000F0E08081EA81FB8180830F900F900F9070
:1028D000CF91DF910895DF93CF9300D0CDB7DEB7CE
:1028E0009A83898389819A81009731F089819A81BD
:1028F0009093BD028093BC020F900F90CF91DF9117
:1029000008951F920F920FB60F9211242F933F93A9
:102910004F935F936F937F938F939F93AF93BF93E7
:10292000EF93FF93DF93CF93CDB7DEB78091BC02D7
:102930009091BD02009729F0E091BC02F091BD0298
:102940000995CF91DF91FF91EF91BF91AF919F9149
:102950008F917F916F915F914F913F912F910F9048
:102960000FBE0F901F901895DF93CF93CDB7DEB7B2
:10297000AFE5B0E0EFE5F0E0808180688C93CF9127
:10298000DF910895DF93CF93CDB7DEB7AFE5B0E029
:10299000EFE5F0E080818F778C93CF91DF91089500
:1029A000DF93CF93CDB7DEB7A5E5B0E0E5E5F0E086
:1029B00080818E7F8C93A5E5B0E0E5E5F0E0808135
:1029C00082608C93ABE5B0E0EBE5F0E08081806461
:1029D0008C93CF91DF910895DF93CF93CDB7DEB77E
:1029E000A5E5B0E0E5E5F0E080818B7F8C93A5E57F
:1029F000B0E0E5E5F0E0808188608C93ABE5B0E085
:102A0000EBE5F0E0808180688C93CF91DF910895B1
:102A1000DF93CF93CDB7DEB7A4E5B0E0E4E5F0E017
:102A200080818F7B8C93ABE5B0E0EBE5F0E08081BB
:102A30008F7D8C93CF91DF910895DF93CF93CDB7A6
:102A4000DEB727970FB6F894DEBF0FBECDBF8983E0
:102A50006A834B838B81882309F074C08981282F76
:102A600030E03F832E838E819F818130910559F123
:102A70002E813F81223031052CF48E819F81009779
:102A800069F0D2C02E813F812230310589F18E81DB
:102A90009F818330910509F440C0C6C0AAE3B0E02D
:102AA000EAE3F0E08081482F8A81282F30E081E03E
:102AB00090E0022E02C0880F991F0A94E2F78095D9
:102AC00084238C93B1C0A7E3B0E0E7E3F0E080811A
:102AD000482F8A81282F30E081E090E0022E02C04A
:102AE000880F991F0A94E2F7809584238C939CC0E9
:102AF000A4E3B0E0E4E3F0E08081482F8A81282F4E
:102B000030E081E090E0022E02C0880F991F0A9405
:102B1000E2F7809584238C9387C0A1E3B0E0E1E3E2
:102B2000F0E08081482F8A81282F30E081E090E01A
:102B3000022E02C0880F991F0A94E2F78095842321
:102B40008C9372C08B81813009F06EC08981282FEF
:102B500030E03D832C838C819D818130910549F14A
:102B60002C813D81223031052CF48C819D81009790
:102B700061F05AC02C813D812230310571F18C8188
:102B80009D8183309105E9F14FC0AAE3B0E0EAE30B
:102B9000F0E08081482F8A81282F30E081E090E0AA
:102BA000022E02C0880F991F0A94E2F7842B8C939F
:102BB0003BC0A7E3B0E0E7E3F0E08081482F8A81E3
:102BC000282F30E081E090E0022E02C0880F991F8C
:102BD0000A94E2F7842B8C9327C0A4E3B0E0E4E3EB
:102BE000F0E08081482F8A81282F30E081E090E05A
:102BF000022E02C0880F991F0A94E2F7842B8C934F
:102C000013C0A1E3B0E0E1E3F0E08081482F8A81C6
:102C1000282F30E081E090E0022E02C0880F991F3B
:102C20000A94E2F7842B8C9327960FB6F894DEBFB4
:102C30000FBECDBFCF91DF910895DF93CF9300D02A
:102C400000D0CDB7DEB789836A838981282F30E031
:102C50003C832B838B819C818130910549F12B81B1
:102C60003C81223031052CF48B819C81009761F0EE
:102C70005AC02B813C812230310571F18B819C81BE
:102C800083309105E9F14FC0ABE3B0E0EBE3F0E056
:102C90008081482F8A81282F30E081E090E0022E49
:102CA00002C0880F991F0A94E2F7842B8C933BC0D3
:102CB000A8E3B0E0E8E3F0E08081482F8A81282F84
:102CC00030E081E090E0022E02C0880F991F0A9444
:102CD000E2F7842B8C9327C0A5E3B0E0E5E3F0E0B6
:102CE0008081482F8A81282F30E081E090E0022EF9
:102CF00002C0880F991F0A94E2F7842B8C9313C0AB
:102D0000A2E3B0E0E2E3F0E08081482F8A81282F3F
:102D100030E081E090E0022E02C0880F991F0A94F3
:102D2000E2F7842B8C930F900F900F900F90CF9120
:102D3000DF910895DF93CF93CDB7DEB727970FB616
:102D4000F894DEBF0FBECDBF89836A834B838B812E
:102D5000813009F06FC08981282F30E03F832E83B6
:102D60008E819F818130910549F12E813F812230F2
:102D700031052CF48E819F81009761F0D2C02E81A5
:102D80003F812230310571F18E819F818330910521
:102D9000E9F1C7C0ABE3B0E0EBE3F0E08081482F9E
:102DA0008A81282F30E081E090E0022E02C0880F57
:102DB000991F0A94E2F7842B8C93B3C0A8E3B0E088
:102DC000E8E3F0E08081482F8A81282F30E081E01D
:102DD00090E0022E02C0880F991F0A94E2F7842B1C
:102DE0008C939FC0A5E3B0E0E5E3F0E08081482F3D
:102DF0008A81282F30E081E090E0022E02C0880F07
:102E0000991F0A94E2F7842B8C938BC0A2E3B0E065
:102E1000E2E3F0E08081482F8A81282F30E081E0D2
:102E200090E0022E02C0880F991F0A94E2F7842BCB
:102E30008C9377C08B81882309F073C08981282FF8
:102E400030E03D832C838C819D818130910559F147
:102E50002C813D81223031052CF48C819D8100979D
:102E600069F05FC02C813D812230310589F18C8170
:102E70009D818330910509F440C053C0ABE3B0E0BD
:102E8000EBE3F0E08081482F8A81282F30E081E059
:102E900090E0022E02C0880F991F0A94E2F78095F5
:102EA00084238C933EC0A8E3B0E0E8E3F0E08081A7
:102EB000482F8A81282F30E081E090E0022E02C066
:102EC000880F991F0A94E2F7809584238C9329C078
:102ED000A5E3B0E0E5E3F0E08081482F8A81282F68
:102EE00030E081E090E0022E02C0880F991F0A9422
:102EF000E2F7809584238C9314C0A2E3B0E0E2E370
:102F0000F0E08081482F8A81282F30E081E090E036
:102F1000022E02C0880F991F0A94E2F7809584233D
:102F20008C9327960FB6F894DEBF0FBECDBFCF911E
:102F3000DF910895DF93CF9300D000D0CDB7DEB7F7
:102F400089836A838981282F30E03C832B838B819E
:102F50009C818130910549F12B813C8122303105E2
:102F60002CF48B819C81009761F05AC02B813C81AD
:102F70002230310571F18B819C8183309105E9F11B
:102F80004FC0ABE3B0E0EBE3F0E08081482F8A81F3
:102F9000282F30E081E090E0022E02C0880F991FB8
:102FA0000A94E2F784278C933BC0A8E3B0E0E8E3FF
:102FB000F0E08081482F8A81282F30E081E090E086
:102FC000022E02C0880F991F0A94E2F784278C937F
:102FD00027C0A5E3B0E0E5E3F0E08081482F8A81D7
:102FE000282F30E081E090E0022E02C0880F991F68
:102FF0000A94E2F784278C9313C0A2E3B0E0E2E3E3
:10300000F0E08081482F8A81282F30E081E090E035
:10301000022E02C0880F991F0A94E2F784278C932E
:103020000F900F900F900F90CF91DF910895DF9345
:10303000CF9300D000D000D0CDB7DEB789836A83AC
:103040005C834B838981282F30E03E832D834D8123
:103050005E814130510559F18D819E81823091050B
:1030600034F42D813E812115310569F05BC04D811D
:103070005E814230510579F18D819E8183309105C9
:1030800009F43DC04FC0E9E3F0E08081282F30E033
:103090008A81882F90E0A90102C0559547958A95AD
:1030A000E2F7CA018170EB81FC8180833BC0E6E3DB
:1030B000F0E08081282F30E08A81882F90E0A901FC
:1030C00002C0559547958A95E2F7CA018170EB8158
:1030D000FC81808327C0E3E3F0E08081282F30E08B
:1030E0008A81882F90E0A90102C0559547958A955D
:1030F000E2F7CA018170EB81FC81808313C0E0E3B9
:10310000F0E08081282F30E08A81882F90E0A901AB
:1031100002C0559547958A95E2F7CA018170EB8107
:10312000FC81808326960FB6F894DEBF0FBECDBF1C
:10313000CF91DF910895DF93CF93CDB7DEB72E9770
:103140000FB6F894DEBF0FBECDBF89836A838A8134
:103150008823D9F58981282F30E03E872D878D85FA
:103160009E8581309105E1F02D853E852230310527
:103170002CF48D859E85009761F069C02D853E8574
:1031800022303105A1F08D859E8583309105B1F007
:103190005EC0EAE3F0E09081EAE3F0E0108257C01D
:1031A000E7E3F0E02081E7E3F0E0108250C0E4E3E1
:1031B000F0E03081E4E3F0E0108249C0E1E3F0E0C8
:1031C0008081E1E3F0E0108242C08A81813009F021
:1031D0003EC08981282F30E038872F838F819885E2
:1031E00081309105E9F02F813885223031052CF4AA
:1031F0008F819885009761F02AC02F813885223011
:103200003105B1F08F81988583309105C9F01FC0D9
:10321000EAE3F0E09081EAE3F0E08FEF808317C00B
:10322000E7E3F0E02081E7E3F0E08FEF80830FC079
:10323000E4E3F0E03081E4E3F0E08FEF808307C067
:10324000E1E3F0E08081E1E3F0E08FEF80832E9610
:103250000FB6F894DEBF0FBECDBFCF91DF910895BA
:10326000DF93CF9300D000D0CDB7DEB789836A83D8
:103270008981282F30E03C832B838B819C81813096
:103280009105D1F02B813C81223031052CF48B81CA
:103290009C81009761F01EC02B813C81223031055A
:1032A00081F08B819C818330910581F013C0EAE32A
:1032B000F0E08A8180830EC0E7E3F0E08A818083BA
:1032C00009C0E4E3F0E08A81808304C0E1E3F0E038
:1032D0008A8180830F900F900F900F90CF91DF9194
:1032E0000895DF93CF9300D00F92CDB7DEB78983D7
:1032F0008981282F30E03B832A838A819B8181301A
:103300009105D1F02A813B81223031052CF48A814C
:103310009B81009761F01EC02A813B8122303105DC
:1033200081F08A819B818330910581F013C0EBE3AA
:10333000F0E08FEF80830EC0E8E3F0E08FEF808352
:1033400009C0E5E3F0E08FEF808304C0E2E3F0E042
:103350008FEF80830F900F900F90CF91DF910895A2
:10336000DF93CF9300D000D0CDB7DEB789836A83D7
:103370008981282F30E03C832B838B819C81813095
:103380009105D1F02B813C81223031052CF48B81C9
:103390009C81009761F01EC02B813C812230310559
:1033A00081F08B819C818330910581F013C0EBE328
:1033B000F0E08A8180830EC0E8E3F0E08A818083B8
:1033C00009C0E5E3F0E08A81808304C0E2E3F0E035
:1033D0008A8180830F900F900F900F90CF91DF9193
:1033E0000895DF93CF9300D00F92CDB7DEB78983D6
:1033F0008981282F30E03B832A838A819B81813019
:103400009105E9F02A813B81223031052CF48A8133
:103410009B81009761F02AC02A813B8122303105CF
:10342000B1F08A819B8183309105C9F01FC0ABE365
:10343000B0E0EBE3F0E0808180958C9317C0A8E3C7
:10344000B0E0E8E3F0E0808180958C930FC0A5E3C5
:10345000B0E0E5E3F0E0808180958C9307C0A2E3C3
:10346000B0E0E2E3F0E0808180958C930F900F90C4
:103470000F90CF91DF910895DF93CF9300D000D0CC
:103480000F92CDB7DEB789837B836A838981282F2A
:1034900030E03D832C838C819D8181309105E1F06A
:1034A0002C813D81223031052CF48C819D81009747
:1034B00061F026C02C813D8122303105A1F08C8144
:1034C0009D8183309105B1F01BC0E9E3F0E080817C
:1034D000EA81FB81808314C0E6E3F0E08081EA8129
:1034E000FB8180830DC0E3E3F0E08081EA81FB8112
:1034F000808306C0E0E3F0E08081EA81FB81808385
:103500000F900F900F900F900F90CF91DF91089533
:10351000DF93CF93CDB7DEB7A7E2B0E0E7E2F0E00C
:10352000808180648C93A7E2B0E0E7E2F0E08081E4
:103530008F778C93A7E2B0E0E7E2F0E080818062D1
:103540008C93A6E2B0E0E6E2F0E0808181608C93AB
:10355000A6E2B0E0E6E2F0E0808182608C93A6E231
:10356000B0E0E6E2F0E0808184608C93A6E2B0E017
:10357000E6E2F0E0808180688C93CF91DF9108953E
:10358000DF93CF9300D00F92CDB7DEB789837B83D3
:103590006A83A7E2B0E0E7E2F0E08081807E8C936E
:1035A000A7E2B0E0E7E2F0E090818981892B8C937B
:1035B000A6E2B0E0E6E2F0E0808180648C93E6E28F
:1035C000F0E0808182958F70882F90E081709070FC
:1035D0000097A9F3A6E2B0E0E6E2F0E08081806126
:1035E0008C93E5E2F0E08081EA81FB8180830F909B
:1035F0000F900F90CF91DF910895DF93CF9300D07C
:103600000F92CDB7DEB789837B836A83A7E2B0E0F0
:10361000E7E2F0E08081807E8C93A7E2B0E0E7E211
:10362000F0E090818981892B8C93A6E2B0E0E6E2FC
:10363000F0E0808180648C93E6E2F0E08081829506
:103640008F70882F90E0817090700097A9F3A6E2A8
:10365000B0E0E6E2F0E0808180618C93E5E2F0E0AA
:103660008081EA81FB8180830F900F900F90CF9132
:10367000DF910895EF92FF920F931F93DF93CF9303
:10368000CDB7DEB72B970FB6F894DEBF0FBECDBF18
:1036900089834A835B836C837D830E831F832887A2
:1036A0003987FB86EA86A7E2B0E0E7E2F0E08081B6
:1036B000807E8C93A7E2B0E0E7E2F0E09081898120
:1036C000892B8C93A6E2B0E0E6E2F0E08081806492
:1036D0008C93E6E2F0E0808182958F70882F90E0F5
:1036E000817090700097A9F3A6E2B0E0E6E2F0E006
:1036F000808180618C93E5E2F0E08081E82EFF24F8
:1037000000E010E02E813F81488559858A819B81A8
:10371000AC81BD81281B390B4A0B5B0BC801B7017B
:103720000E944C26DC01CB012FEF30E040E050E05E
:10373000BC01CD010E946B26DA01C9019C01AD01DB
:103740008A819B81AC81BD81820F931FA41FB51F0D
:10375000EA85FB8580839183A283B3832B960FB682
:10376000F894DEBF0FBECDBFCF91DF911F910F91B7
:10377000FF90EF900895DF93CF93CDB7DEB70E940F
:10378000620D0E94830F0E94C61BFDCFDF93CF9373
:10379000CDB7DEB7C255D0400FB6F894DEBF0FBE2E
:1037A000CDBF9E012E5E3F4F26963FAF2EAF269790
:1037B00081E790E028969FAF8EAF28979AE02996F0
:1037C0009FAF29972896AEADBFAD28970C9028964D
:1037D000EEADFFAD289731962896FFAFEEAF289754
:1037E0002696AEADBFAD26970C922696EEADFFADF8
:1037F000269731962696FFAFEEAF26972996FFAD16
:103800002997F1502996FFAF299729962FAD29972F
:103810002223C1F686E0FE017C96DF01282F1D924F
:103820002A95E9F7CE0182962B969FAF8EAF2B9704
:10383000A1E8B0E02D96BFAFAEAF2D97B8E02E96C1
:10384000BFAF2E972D96EEADFFAD2D9700802D9634
:103850002EAD3FAD2D972F5F3F4F2D963FAF2EAF33
:103860002D972B96AEADBFAD2B970C922B96EEAD50
:10387000FFAD2B9731962B96FFAFEEAF2B972E9681
:10388000FFAD2E97F1502E96FFAF2E972E962FADAF
:103890002E972223B9F688E0FE01BA96DF01282F81
:1038A0001D922A95E9F7CE01C29660969FAF8EAF22
:1038B0006097A1E9B0E06296BFAFAEAF6297BEE09D
:1038C0006396BFAF63976296EEADFFAD62970080DF
:1038D00062962EAD3FAD62972F5F3F4F62963FAF2E
:1038E0002EAF62976096AEADBFAD60970C926096BA
:1038F000EEADFFAD609731966096FFAFEEAF60978B
:103900006396FFAD6397F1506396FFAF639763963D
:103910002FAD63972223B9F6FE01E05CFF4F1182C1
:10392000108281E0898B81E0888B1F86B2C00E9463
:103930001B0D80E060E00E94960CCE0142960E9432
:10394000EF0C80E061E00E94960CCE0182960E940E
:10395000EF0C0E94BF0E80538F878F85A82FB0E099
:103960002496BFAFAEAF24972496EEADFFAD24975B
:10397000E130F10541F024962EAD3FAD2497223081
:10398000310521F00EC00E94EA2083C00E94472426
:10399000888B03C00E94581D888B88898823D1F7A3
:1039A00078C00E941B0DCE01C2960E94EF0C80E0F1
:1039B00090E0AAE7B4E48B879C87AD87BE876B85D0
:1039C0007C858D859E8520E030E04AE753E40E94A7
:1039D0001F02DC01CB018F839887A987BA876F818B
:1039E000788589859A8520E030E040E85FE30E9491
:1039F000790388232CF481E090E09E838D833FC07F
:103A00006F81788589859A8520E03FEF4FE757E4FD
:103A10000E94190318164CF56B857C858D859E8553
:103A200020E030E040E251E40E941F02DC01CB01C3
:103A3000BC01CD010E944900DC01CB019E838D8336
:103A40000FC089E190E09C838B838B819C810197DF
:103A5000F1F79C838B838D819E8101979E838D835B
:103A60008D819E81009769F714C06F817885898563
:103A70009A850E944900DC01CB019E838D838D8154
:103A80009E819A83898389819A810197F1F79A832C
:103A900089838989882309F04ACF81E0CE5ADF4F94
:103AA0000FB6F894DEBF0FBECDBFCF91DF91089562
:103AB000DF93CF93CDB7DEB7C155D0400FB6F894A2
:103AC000DEBF0FBECDBF81E08F879E012F5E3F4FCF
:103AD00025963FAF2EAF259781EA90E027969FAFBE
:103AE0008EAF27979FE028969FAF28972796EEAD39
:103AF000FFAD2797008027962EAD3FAD27972F5F0C
:103B00003F4F27963FAF2EAF27972596EEADFFADDF
:103B10002597008225962EAD3FAD25972F5F3F4F0D
:103B200025963FAF2EAF259728963FAD2897315069
:103B300028963FAF289728968FAD28978823B1F60F
:103B400018A2FE01B1962A96FFAFEEAF2A9721EB9D
:103B500030E02C963FAF2EAF2C973CE02D963FAF38
:103B60002D972C96EEADFFAD2C9700802C962EADA8
:103B70003FAD2C972F5F3F4F2C963FAF2EAF2C972A
:103B80002A96EEADFFAD2A9700822A962EAD3FAD64
:103B90002A972F5F3F4F2A963FAF2EAF2A972D9639
:103BA0003FAD2D9731502D963FAF2D972D968FAD70
:103BB0002D978823B1F61DA61EA61FA618AAFE01E2
:103BC000F1962F96FFAFEEAF2F9721EC30E0619684
:103BD0003FAF2EAF61973EE062963FAF629761962E
:103BE000EEADFFAD6197008061962EAD3FAD619760
:103BF0002F5F3F4F61963FAF2EAF61972F96EEAD8F
:103C0000FFAD2F9700822F962EAD3FAD2F972F5FE0
:103C10003F4F2F963FAF2EAF2F9762963FAD6297E3
:103C2000315062963FAF629762968FAD629788235C
:103C3000B1F6FE01FF9611821082ACC00E941B0DEE
:103C4000CE0141960E94EF0C80E061E00E94960C4C
:103C5000CE0181960E94EF0C0E94BF0E8053888B8C
:103C60008889E82FF0E02396FFAFEEAF23972396E5
:103C70002EAD3FAD23972230310509F48BC023963A
:103C80008EAD9FAD23978F31910551F02396EEAD08
:103C9000FFAD2397E130F10529F40E94D91E7AC0C7
:103CA0001F8678C00E941B0DCE01C1960E94EF0CAA
:103CB00080E090E0AAE7B4E48B879C87AD87BE875D
:103CC0006B857C858D859E8520E030E04AE753E456
:103CD0000E941F02DC01CB018F839887A987BA87D6
:103CE0006F81788589859A8520E030E040E85FE340
:103CF0000E94790388232CF481E090E09E838D83D9
:103D00003FC06F81788589859A8520E03FEF4FE736
:103D100057E40E94190318164CF56B857C858D8538
:103D20009E8520E030E040E251E40E941F02DC0169
:103D3000CB01BC01CD010E944900DC01CB019E8377
:103D40008D830FC089E190E09C838B838B819C8164
:103D50000197F1F79C838B838D819E8101979E83D0
:103D60008D838D819E81009769F714C06F8178855E
:103D700089859A850E944900DC01CB019E838D8351
:103D80008D819E819A83898389819A810197F1F738
:103D90009A8389838F85882309F050CF8F85CF5AE6
:103DA000DF4F0FB6F894DEBF0FBECDBFCF91DF91CE
:103DB0000895DF93CF93CDB7DEB7C257D0400FB68B
:103DC000F894DEBF0FBECDBFCE018096A6969FAF02
:103DD0008EAFA697A1EDB0E0A896BFAFAEAFA89703
:103DE000B6E0A996BFAFA997A896EEADFFADA8978C
:103DF0000080A8968EAD9FADA8970196A8969FAF1C
:103E00008EAFA897A696AEADBFADA6970C92A6961C
:103E1000EEADFFADA6973196A696FFAFEEAFA69793
:103E2000A996FFADA997F150A996FFAFA997A996BA
:103E30008FADA9978823C1F68AE0FE01B696DF010F
:103E4000982F1D929A95E9F7DE01D096AB96BFAFF9
:103E5000AEAFAB97E1EEF0E0AD96FFAFEEAFAD9752
:103E6000F8E0AE96FFAFAE97AD96AEADBFADAD97F5
:103E70000C90AD96EEADFFADAD973196AD96FFAF20
:103E8000EEAFAD97AB96AEADBFADAB970C92AB9628
:103E9000EEADFFADAB973196AB96FFAFEEAFAB9704
:103EA000AE96FFADAE97F150AE96FFAFAE97AE9621
:103EB0008FADAE978823C1F688E0FE01F896DF014A
:103EC000982F1D929A95E9F7DE01A05CBF4FE0960E
:103ED000BFAFAEAFE097E1EFF0E0E296FFAFEEAF3D
:103EE000E297FFE0E396FFAFE397E296AEADBFAD9A
:103EF000E2970C90E296EEADFFADE2973196E29636
:103F0000FFAFEEAFE297E096AEADBFADE0970C929B
:103F1000E096EEADFFADE0973196E096FFAFEEAFE5
:103F2000E097E396FFADE397F150E396FFAFE39799
:103F3000E3968FADE3978823C1F6FE01E15BFF4F67
:103F400010821F8E81E08E8F37C10E94F80D8F3452
:103F500009F436C11D8EAEC08D8D882F90E0880F7C
:103F6000991F0196880F991FFC01E154FD4F808134
:103F7000813009F09CC00E941B0DCE0180960E94EA
:103F8000EF0C8D8D882F90E0880F991F880F991F57
:103F9000FC01E154FD4F808191819E01205B3F4FE8
:103FA000B9014AE050E00E94C426CE01805B9F4FD9
:103FB0000E94EF0C80E061E00E94960CCE01C0965A
:103FC0000E94EF0C80E090E0AAEFB3E4898F9A8F13
:103FD000AB8FBC8F698D7A8D8B8D9C8D20E030E00E
:103FE0004AE753E40E941F02DC01CB018D8B9E8BBC
:103FF000AF8BB88F6D897E898F89988D20E030E0F6
:1040000040E85FE30E94790388232CF481E090E08C
:104010009C8B8B8B3FC06D897E898F89988D20E02A
:104020003FEF4FE757E40E94190318164CF5698DCE
:104030007A8D8B8D9C8D20E030E040E251E40E942F
:104040001F02DC01CB01BC01CD010E944900DC0153
:10405000CB019C8B8B8B0FC089E190E09A8B898B75
:1040600089899A890197F1F79A8B898B8B899C8929
:1040700001979C8B8B8B8B899C89009769F714C067
:104080006D897E898F89988D0E944900DC01CB0162
:104090009C8B8B8B8B899C89988B8F878F8598893C
:1040A0000197F1F7988B8F878F8D8F5F8F8F8D8D15
:1040B0008F5F8D8F8D8D823308F44ECF8F8D882347
:1040C00009F07AC00E941B0DCE01805C9F4F0E94B8
:1040D000EF0C80E090E0AAEFB3E48B879C87AD877C
:1040E000BE876B857C858D859E8520E030E04AE724
:1040F00053E40E941F02DC01CB018F839887A987BC
:10410000BA876F81788589859A8520E030E040E81C
:104110005FE30E94790388232CF481E090E09E8382
:104120008D833FC06F81788589859A8520E03FEF38
:104130004FE757E40E94190318164CF56B857C85F0
:104140008D859E8520E030E040E251E40E941F0210
:10415000DC01CB01BC01CD010E944900DC01CB0197
:104160009E838D830FC089E190E09C838B838B813C
:104170009C810197F1F79C838B838D819E810197B0
:104180009E838D838D819E81009769F714C06F8116
:10419000788589859A850E944900DC01CB019E8340
:1041A0008D838D819E819A83898389819A810197EC
:1041B000F1F79A8389831E8E8E8D882309F0C5CEF0
:1041C000CE58DF4F0FB6F894DEBF0FBECDBFCF91F4
:1041D000DF910895DF93CF93CDB7DEB7C155D040BF
:1041E0000FB6F894DEBF0FBECDBF81E08F879E0172
:1041F0002F5E3F4F25963FAF2EAF259781E091E090
:1042000027969FAF8EAF279799E028969FAF289764
:104210002796AEADBFAD27970C902796EEADFFADBC
:10422000279731962796FFAFEEAF27972596AEAD2D
:10423000BFAD25970C922596EEADFFAD2597319633
:104240002596FFAFEEAF25972896FFAD2897F15042
:104250002896FFAF289728962FAD28972223C1F6DE
:1042600087E0FE017A96DF01282F1D922A95E9F753
:10427000CE0181962A969FAF8EAF2A97A1E1B1E039
:104280002C96BFAFAEAF2C97BAE02D96BFAF2D974F
:104290002C96EEADFFAD2C9700802C962EAD3FAD49
:1042A0002C972F5F3F4F2C963FAF2EAF2C972A961F
:1042B000AEADBFAD2A970C922A96EEADFFAD2A9710
:1042C00031962A96FFAFEEAF2A972D96FFAD2D9728
:1042D000F1502D96FFAF2D972D962FAD2D972223C0
:1042E000B9F686E0FE01BB96DF01282F1D922A95C4
:1042F000E9F7CE01C1962F969FAF8EAF2F97A1EC15
:10430000B0E06196BFAFAEAF6197BEE06296BFAF5F
:1043100062976196EEADFFAD6197008061962EAD1C
:104320003FAD61972F5F3F4F61963FAF2EAF6197D3
:104330002F96AEADBFAD2F970C922F96EEADFFAD81
:104340002F9731962F96FFAFEEAF2F976296FFAD66
:104350006297F1506296FFAF629762962FAD6297B7
:104360002223B9F6FE01FF9611821082ACC00E9492
:104370001B0DCE0141960E94EF0C80E061E00E948F
:10438000960CCE0181960E94EF0C0E94BF0E8053C6
:10439000888B8889A82FB0E02396BFAFAEAF239754
:1043A0002396EEADFFAD2397E230F10509F48BC003
:1043B00023962EAD3FAD23972F31310551F0239633
:1043C0008EAD9FAD23978130910529F40E94712213
:1043D0007AC01F8678C00E941B0DCE01C1960E9434
:1043E000EF0C80E090E0AAE7B4E48B879C87AD8770
:1043F000BE876B857C858D859E8520E030E04AE711
:1044000053E40E941F02DC01CB018F839887A987A8
:10441000BA876F81788589859A8520E030E040E809
:104420005FE30E94790388232CF481E090E09E836F
:104430008D833FC06F81788589859A8520E03FEF25
:104440004FE757E40E94190318164CF56B857C85DD
:104450008D859E8520E030E040E251E40E941F02FD
:10446000DC01CB01BC01CD010E944900DC01CB0184
:104470009E838D830FC089E190E09C838B838B8129
:104480009C810197F1F79C838B838D819E8101979D
:104490009E838D838D819E81009769F714C06F8103
:1044A000788589859A850E944900DC01CB019E832D
:1044B0008D838D819E819A83898389819A810197D9
:1044C000F1F79A8389838F85882309F050CFCF5ADB
:1044D000DF4F0FB6F894DEBF0FBECDBFCF91DF9197
:1044E0000895DF93CF93CDB7DEB7C954D0400FB650
:1044F000F894DEBF0FBECDBF81E08B8F1F8A188E70
:10450000198E1A8ECE01809622969FAF8EAF22977B
:10451000E1E2F1E02496FFAFEEAF2497F0E12596BB
:10452000FFAF25972496EEADFFAD2497008024962B
:104530008EAD9FAD2497019624969FAF8EAF2497A2
:104540002296EEADFFAD2297008222968EAD9FADF2
:104550002297019622969FAF8EAF229725969FAD08
:104560002597915025969FAF25972596EFAD2597D6
:10457000EE23C1F6CE01C09627969FAF8EAF279748
:10458000E1E3F1E02996FFAFEEAF2997FEE02A962E
:10459000FFAF2A972996EEADFFAD299700802996A7
:1045A0008EAD9FAD2997019629969FAF8EAF299723
:1045B0002796EEADFFAD2797008227968EAD9FAD73
:1045C0002797019627969FAF8EAF27972A969FAD84
:1045D0002A9791502A969FAF2A972A96EFAD2A974D
:1045E000EE23C1F61FAE1EAEE8C00E941B0DCE0129
:1045F00080960E94EF0C80E061E00E94960C1B8A7E
:104600001C8A1D8A1E8A88EE93E0A0E0B0E08F87A6
:10461000988BA98BBA8B47C00E94BF0E882F90E061
:10462000A0E0B0E08C8F9D8FAE8FBF8F8C8D0E94ED
:10463000F80B8C8D9D8DAE8DBF8DC097A109B109F2
:104640002F85388949895A89BC01CD010E944C26A1
:104650009B01AC018F89988DA98DBA8D820F931F14
:10466000A41FB51F8F8B988FA98FBA8F8B899C89B8
:10467000AD89BE890196A11DB11D8B8B9C8BAD8B25
:10468000BE8B8F859889A989BA892AE030E040E0FD
:1046900050E0BC01CD010E946B26DA01C9018F8771
:1046A000988BA98BBA8B8B899C89AD89BE89843004
:1046B0009105A105B10508F4AFCF8F890E940D24A3
:1046C000882309F079C00E941B0DCE01C0960E947C
:1046D000EF0C80E090E0AAEFB3E48B879C87AD8776
:1046E000BE876B857C858D859E8520E030E04AE71E
:1046F00053E40E941F02DC01CB018F839887A987B6
:10470000BA876F81788589859A8520E030E040E816
:104710005FE30E94790388232CF481E090E09E837C
:104720008D833FC06F81788589859A8520E03FEF32
:104730004FE757E40E94190318164CF56B857C85EA
:104740008D859E8520E030E040E251E40E941F020A
:10475000DC01CB01BC01CD010E944900DC01CB0191
:104760009E838D830FC089E190E09C838B838B8136
:104770009C810197F1F79C838B838D819E810197AA
:104780009E838D838D819E81009769F716C06F810E
:10479000788589859A850E944900DC01CB019E833A
:1047A0008D838D819E819A83898389819A810197E6
:1047B000F1F79A83898301C01B8E8B8D882309F0C2
:1047C00014CF8091BE02882F90E02F89388D880FFA
:1047D000991F880F991FFC01E154FD4F31832083FD
:1047E0008091BE02882F90E0880F991F0196880F54
:1047F000991FFC01E154FD4F81E080838091BE024E
:104800008F5F8093BE02C75BDF4F0FB6F894DEBFA9
:104810000FBECDBFCF91DF910895DF93CF9300D02E
:104820000F92CDB7DEB78A83198225C08981882F80
:1048300090E0880F991F0196880F991FFC01E154A1
:10484000FD4F80818130A1F48981882F90E0880F0D
:10485000991F880F991FFC01E154FD4F2081318180
:104860008A81882F90E02817390711F41B8208C02D
:1048700089818F5F898389818233C0F281E08B8354
:104880008B810F900F900F90CF91DF910895DF9360
:10489000CF93CDB7DEB7C056D0400FB6F894DEBF89
:1048A0000FBECDBF1F8E81E08E8FCE0181966496A4
:1048B0009FAF8EAF6497A1E4B1E06696BFAFAEAF95
:1048C0006697BFE06796BFAF67976696EEADFFADA0
:1048D0006697008066968EAD9FAD66970196669648
:1048E0009FAF8EAF66976496AEADBFAD64970C92E6
:1048F0006496EEADFFAD649731966496FFAFEEAF70
:1049000064976796FFAD6797F1506796FFAF67971B
:1049100067968FAD67978823C1F618AADE01D196F6
:104920006996BFAFAEAF6997E1E5F1E06B96FFAF77
:10493000EEAF6B97FFE06C96FFAF6C976B96AEADEA
:10494000BFAD6B970C906B96EEADFFAD6B9731964C
:104950006B96FFAFEEAF6B976996AEADBFAD699743
:104960000C926996EEADFFAD699731966996FFAFEF
:10497000EEAF69976C96FFAD6C97F1506C96FFAFF8
:104980006C976C968FAD6C978823C1F6FE01E05C46
:10499000FF4F1082DE01AF5BBF4F6E96BFAFAEAF71
:1049A0006E97E1E6F1E0A096FFAFEEAFA097FBE0D7
:1049B000A196FFAFA197A096AEADBFADA0970C900A
:1049C000A096EEADFFADA0973196A096FFAFEEAFEB
:1049D000A0976E96AEADBFAD6E970C926E96EEAD93
:1049E000FFAD6E9731966E96FFAFEEAF6E97A196C4
:1049F000FFADA197F150A196FFAFA197A1968FAD02
:104A0000A1978823C1F6CE01845B9F4F25E0FC016E
:104A1000DF01822F1D928A95E9F72AC10E941B0DA2
:104A200080E060E00E94960CCE0181960E94EF0C1F
:104A300080E061E00E94960C1D8E1AC00E94BF0E9D
:104A400088A388A18F3421F462961FAE629717C1A4
:104A50008AE20E94F80B80E20E94F80B88A1805342
:104A600088A39F8D88A1890F8F8F8D8D8F5F8D8FEC
:104A70008D8D843018F38F8D8A3009F07FC01E8EA3
:104A80000E94620DCE018F5B9F4F0E94EF0C80E071
:104A900090E0AAE7B4E4898F9A8FAB8FBC8F698DC1
:104AA0007A8D8B8D9C8D20E030E04AE753E40E94A4
:104AB0001F02DC01CB018D8B9E8BAF8BB88F6D8974
:104AC0007E898F89988D20E030E040E85FE30E9486
:104AD000790388232CF481E090E09C8B8B8B3FC082
:104AE0006D897E898F89988D20E03FEF4FE757E4ED
:104AF0000E94190318164CF5698D7A8D8B8D9C8D4B
:104B000020E030E040E251E40E941F02DC01CB01D2
:104B1000BC01CD010E944900DC01CB019C8B8B8B39
:104B20000FC089E190E09A8B898B89899A890197D6
:104B3000F1F79A8B898B8B899C8901979C8B8B8B46
:104B40008B899C89009769F714C06D897E898F894C
:104B5000988D0E944900DC01CB019C8B8B8B8B894B
:104B60009C89988B8F878F8598890197F1F7988B0F
:104B70008F8791E062969FAF629781C00E94620D1D
:104B8000CE01C1960E94EF0C80E090E0AAE7B4E469
:104B90008B879C87AD87BE876B857C858D859E8541
:104BA00020E030E04AE753E40E941F02DC01CB0121
:104BB0008F839887A987BA876F81788589859A8539
:104BC00020E030E040E85FE30E94790388232CF482
:104BD00081E090E09E838D833FC06F8178858985D9
:104BE0009A8520E03FEF4FE757E40E94190318161B
:104BF0004CF56B857C858D859E8520E030E040E21C
:104C000051E40E941F02DC01CB01BC01CD010E94D6
:104C10004900DC01CB019E838D830FC089E190E0C8
:104C20009C838B838B819C810197F1F79C838B8381
:104C30008D819E8101979E838D838D819E810097BA
:104C400069F714C06F81788589859A850E9449002B
:104C5000DC01CB019E838D838D819E819A83898324
:104C600089819A810197F1F79A8389830E94620D65
:104C70008E8D882309F0D2CE62961FAE629762961F
:104C80008FAD6297C05ADF4F0FB6F894DEBF0FBEEC
:104C9000CDBFCF91DF910895629FD001739FF00146
:104CA000829FE00DF11D649FE00DF11D929FF00DBC
:104CB000839FF00D749FF00D659FF00D9927729FF3
:104CC000B00DE11DF91F639FB00DE11DF91FBD017E
:104CD000CF0111240895A1E21A2EAA1BBB1BFD01CE
:104CE0000DC0AA1FBB1FEE1FFF1FA217B307E407CB
:104CF000F50720F0A21BB30BE40BF50B661F771F23
:104D0000881F991F1A9469F7609570958095909502
:104D10009B01AC01BD01CF0108952F923F924F92AC
:104D20005F926F927F928F929F92AF92BF92CF923B
:104D3000DF92EF92FF920F931F93CF93DF93CDB744
:104D4000DEB7CA1BDB0B0FB6F894DEBF0FBECDBFBC
:104D500009942A88398848885F846E847D848C848D
:104D60009B84AA84B984C884DF80EE80FD800C8196
:104D70001B81AA81B981CE0FD11D0FB6F894DEBF79
:104D80000FBECDBFED010895FB019F01E8944230B5
:104D9000C4F04532B4F44A3029F497FB1EF49095E0
:104DA00081959F4F642F77270E94F526805D8A3377
:104DB0000CF0895D8193CB010097A1F716F45DE2B9
:104DC00051931082C9010C94E526DC01FC01672F88
:104DD00071917723E1F7329704C07C916D937083D2
:104DE0006291AE17BF07C8F30895AA1BBB1B51E120
:104DF00007C0AA1FBB1FA617B70710F0A61BB70B4B
:104E0000881F991F5A95A9F780959095BC01CD01EF
:064E10000895F894FFCFA5
:104E1600202020202020202020202020202020208C
:104E26000031295061726B696E6700000000000056
:104E360000322941646D696E000000000000000028
:104E46000057726F6E6720496E7075742E2E0000C3
:104E560000312920416374697665204361727300CD
:104E660000322920416C6C204361727300000000FF
:104E76000057726F6E6720496E70757421210000AD
:104E8600004944203A200000000000000000000015
:104E96000054696D65203A20000000000000000003
:104EA600004E6F204163746976652043617273001A
:104EB60000312920496E203C2D0000000000000032
:104EC600003229204F7574202D3E0000000000009E
:104ED60000506C6561736520456E746572204944A7
:104EE60000496E76616C69642049442021210000E6
:104EF60000456E7465722050617373776F7264003B
:104F06000057726F6E672050617373776F7264001B
:104F16000057656C636F6D652E2E2E000000000035
:104F2600000000000000000000000102020303036D
:104F36000304040404040404040505050505050525
:104F46000505050505050505050606060606060604
:104F560006060606060606060606060606060606EB
:104F660006060606060606060607070707070707D4
:104F760007070707070707070707070707070707BB
:104F860007070707070707070707070707070707AB
:104F9600070707070707070707070707070707079B
:104FA6000707070707070707070808080808080884
:104FB600080808080808080808080808080808086B
:104FC600080808080808080808080808080808085B
:104FD600080808080808080808080808080808084B
:104FE600080808080808080808080808080808083B
:104FF600080808080808080808080808080808082B
:10500600080808080808080808080808080808081A
:10501600080808080808080808080808080808080A
:10502600080808080808080808C0F9A4B099928278
:10503600F88090C0F9A4B0999282F88090C0F9A443
:10504600B0999282F880903738392F3435362A3124
:1050560032332D4F303D2B3738392F3435362A3100
:0850660032332D4F303D2B00C9
:00000001FF
